:020000040800F2
:1000000000000120BD3A000835030008370300084E
:10001000390300083B0300083D030008000000000E
:100020000000000000000000000000003F03000886
:1000300041030008000000004303000845030008D6
:10004000053B0008053B0008053B0008053B000890
:10005000053B0008053B0008053B0008053B000880
:10006000053B0008053B0008053B0008053B000870
:10007000053B0008053B0008053B0008053B000860
:10008000053B0008053B0008053B0008053B000850
:100090004D030008053B0008053B0008053B000830
:1000A000053B0008053B0008053B0008053B000830
:1000B000053B0008053B0008053B0008053B000820
:1000C000053B0008053B0008053B0008053B000810
:1000D000053B0008053B0008053B0008053B000800
:1000E000053B0008053B0008053B0008053B0008F0
:1000F000053B0008053B0008053B0008053B0008E0
:10010000053B0008053B0008053B0008053B0008CF
:10011000053B0008053B0008053B0008053B0008BF
:10012000053B0008053B0008053B0008053B0008AF
:1001300000000000000000000000000000000000BF
:1001400000000000000000000000000000000000AF
:10015000000000000000000000000000000000009F
:10016000000000000000000000000000000000008F
:10017000000000000000000000000000000000007F
:10018000000000000000000000000000000000006F
:10019000000000000000000000000000000000005F
:1001A000000000000000000000000000000000004F
:1001B000000000000000000000000000000000003F
:1001C000000000000000000000000000000000002F
:1001D000000000000000000000000000000000001F
:0401E0005FF8E0F1F3
:1001E40010B5054C237833B9044B13B10448AFF36D
:1001F40000800123237010BD94050020000000003E
:10020400D43C000808B5034B1BB103490348AFF3C2
:10021400008008BD0000000098050020D43C0008C0
:1002240082B00A4B9A6942F010029A619A6902F00C
:1002340010020092009A9A6942F004029A619B6942
:1002440003F004030193019B02B0704700100240C5
:1002540072B6FEE700B597B0282200210CA803F07F
:1002640075FC00230793089309930A930B93019356
:100274000293039304930593069301220C924FF483
:1002840080330D9310920222139214934FF4E013CF
:1002940015930CA801F0DCF8C0B90F2307930221D1
:1002A4000891002309934FF480620A920B9307A8E4
:1002B40001F00EFB60B9102301930023069301A8FB
:1002C40001F0BCFB30B917B05DF804FBFFF7C0FFC9
:1002D400FFF7BEFFFFF7BCFF08B500F065F8FFF7B6
:1002E400B9FFFFF79DFF03F00BFAFEE782B00E4B58
:1002F4009A6942F001029A619A6902F0010200923D
:10030400009ADA6942F08052DA61DB6903F08053C3
:100314000193019B054A536823F0E06343F00073A3
:10032400536002B0704700BF00100240000001405B
:10033400FEE7FEE7FEE7FEE7FEE77047704770471B
:1003440008B500F043F808BD08B5024800F02FFED8
:1003540008BD00BF7C0A00207047000010B50446A9
:100364000E4B18784FF47A73B3FBF0F30C4A106811
:10037400B0FBF3F000F094F868B90F2C01D9012018
:100384000AE0002221464FF0FF3000F043F8054B0D
:100394001C60002000E0012010BD00BF040000200C
:1003A400000000200800002008B5074A136843F045
:1003B40010031360032000F01BF80F20FFF7CEFF9B
:1003C400FFF794FF002008BD00200240034A116893
:1003D400034B1B780B441360704700BFB00500202B
:1003E40004000020014B1868704700BFB0050020CE
:1003F400074AD36823F4E0631B041B0C000200F4D7
:10040400E060034343F0BF6343F40033D3607047B9
:1004140000ED00E000B5194BDB68C3F30223C3F120
:10042400070CBCF1040F28BF4FF0040C03F1040EB9
:10043400BEF1060F18D9033B4FF0FF3E0EFA0CFC39
:1004440021EA0C0199400EFA03F322EA030319434B
:1004540000280BDB0901C9B200F1604000F56140DE
:1004640080F800135DF804FB0023E5E700F00F00BB
:100474000901C9B2024B1954F4E700BF00ED00E0D2
:1004840014ED00E0002807DB00F01F0240090123FF
:100494009340024A42F82030704700BF00E100E078
:1004A4000138B0F1807F0BD24FF0E0235861054A48
:1004B400F02182F823100020986107221A61704706
:1004C4000120704700ED00E038B512F4804F44D0AD
:1004D4000468B4F850309BB291F800C003EBCC032D
:1004E400023304EB4303B3F80044C4F309048B69F7
:1004F400A34228D31B1B8B618B697BB9056835F834
:100504002C309BB223F4804323F0700383F4005314
:1005140043F4004343F0800325F82C3012F0400FDD
:100524000ED002680D7832F825309BB223F4E043F4
:1005340023F0700343F4004343F0C00322F8253052
:1005440024B9204638BD00238B61D5E723460A89A8
:100554004969006802F0C5FAF3E70468B4F850305A
:100564009BB291F800C003EBCC03063304EB4303C6
:10057400B3F80044C4F309048B69A3422FD31B1BB3
:100584008B618B697BB9056835F82C309BB223F4F9
:10059400804323F0700383F4005343F4004343F097
:1005A400800325F82C3012F0400F0FD1026891F827
:1005B40000C032F82C309BB223F4E04323F07003E4
:1005C40043F4004343F0C00322F82C30002CB8D08D
:1005D40023464A894969006802F083FAB1E7002397
:1005E4008B61CEE770B586B0002800F085800446A4
:1005F40090F8A932EBB1032384F8A932206801F002
:10060400B9FA254655F8106BEC460FCDACE80F004F
:100614002B68CCF80030231D0ECB304601F09AFA3B
:10062400054658B1022384F8A9320125284606B0AC
:1006340070BD80F8A83203F037F9DCE700212068A8
:1006440001F0A2FA2B461AE05A1C02EB820104EBD9
:10065400C1010120487002EB820104F8313003EB40
:10066400830104EBC101CB8602EB820C04EBCC0CBE
:1006740000208CF803008863C8630864D3B26168FF
:100684008B42E1D316E005EB850304EBC3030022A0
:1006940083F8692183F8685183F86B21C3F87821C2
:1006A400C3F87C2105EB850304EBC303C3F8802165
:1006B4000135EDB2A942E6D8254655F8106BEC4653
:1006C4000FCDACE80F002B68CCF80030231D0ECB07
:1006D400304601F05BFA054620B1022384F8A932C2
:1006E4000125A3E7002384F82430012384F8A932E8
:1006F400206801F081FD99E7012597E738B590F866
:10070400A832012B11D00446012580F8A8520068B4
:1007140001F027FA2946204603F0CDF9206801F0BC
:1007240069FD002084F8A80238BD0220FCE770B5FA
:1007340005460C46164612F0400F00F00D81026883
:10074400B2F850309BB2097803EBC103023302EBD9
:100754004303B3F80024C2F30902A369934252D9B4
:100764009B1AA361A369002B6AD16378002B4DD136
:100774002B68B3F8502092B2134403EB0111B1F883
:1007840004349BB223F4F8439BB2A1F80434B1F8C7
:1007940004346FEA43436FEA53439BB2A1F8043431
:1007A4002B686278002A3ED1B3F8502092B21344E9
:1007B400227803EB0213B3F80C2492B222F4F84229
:1007C40092B2A3F80C24B3F80C246FEA42426FEA05
:1007D400524292B2A3F80C242178284603F098F8E8
:1007E40016F4804F41D02A68217832F821309BB228
:1007F40023F4E04323F0700343F4404343F08003C5
:1008040022F8213031E00023A361ABE7012BC7D1EB
:100814002B68B3F8502092B2134403EB0111002368
:10082400A1F80434BCE7012AD6D1B3F8502092B21F
:100834001344227803EB02130022A3F80C24CBE721
:1008440016F4804F0DD0286830F821309BB223F481
:10085400E04323F0700343F4404343F0800320F863
:10086400213094F82430012B12D02A68217832F8F0
:1008740021309BB223F4E04323F0400383F03003A0
:1008840043F4004343F0800322F82130002070BD7C
:10089400636913446361E3691344E361216A23696F
:1008A40099421FD3C91A21626278002A3FD12A686B
:1008B400B2F8501089B20A44217802EB0112EBB964
:1008C400B2F8041489B221F4F84189B2A2F80414EC
:1008D400B2F804146FEA41416FEA514189B2A2F8B7
:1008E400041426E021B9002384F824301346DBE7FE
:1008F400002384F8243023620B46D5E73E2B09D825
:10090400590813F0010F00D00131890289B2A2F80D
:1009140004140EE0590913F01F0F00D101396FEAD6
:10092400C1616FEA514189B2A2F8041401E0012ABD
:1009340006D09BB222896169286801F065FC94E7BE
:100944002A68B2F8501089B20A44217802EB0112E5
:1009540099B2A2F80414ECE70268B2F850309BB2E2
:10096400097803EBC103063302EB4303B3F8002415
:10097400C2F30902A369934253D39B1AA361A369E7
:10098400002B6BD16378002B4ED12B68B3F8502029
:1009940092B2134403EB0111B1F804349BB223F473
:1009A400F8439BB2A1F80434B1F804346FEA43432A
:1009B4006FEA53439BB2A1F804342B686278002A8F
:1009C4003FD1B3F8502092B21344227803EB0213C0
:1009D400B3F80C2492B222F4F84292B2A3F80C2495
:1009E400B3F80C246FEA42426FEA524292B2A3F87F
:1009F4000C242178284602F08BFF16F4804F7FF4F4
:100A040034AF2A68217832F821309BB223F4E043D2
:100A140023F0700343F4404343F0800322F8213071
:100A240023E70023A361AAE7012BC6D12B68B3F8FF
:100A3400502092B2134403EB01110023A1F80434B3
:100A4400BBE7012AD5D1B3F8502092B213442278DF
:100A540003EB02130022A3F80C24CAE716F4804F18
:100A64000DD1286830F821309BB223F4E04323F001
:100A7400700343F4404343F0800320F8213094F89A
:100A84002430012B7FF4F1AE636913446361E3699D
:100A94001344E361216A236999421FD3C91A21626D
:100AA4002A68617800293ED1B2F8501089B20A440C
:100AB400217802EB0112EBB9B2F80C1489B221F4DB
:100AC400F84189B2A2F80C14B2F80C146FEA41414F
:100AD4006FEA514189B2A2F80C1426E021B900232F
:100AE40084F824301346DBE70023236284F824309F
:100AF4000B46D5E73E2B09D8590813F0010F00D057
:100B04000131890289B2A2F80C140EE0590913F0DC
:100B14001F0F00D101396FEAC1616FEA514189B2F7
:100B2400A2F80C1401E0012906D09BB26289616924
:100B3400286801F069FB98E6B2F8501089B20A44BB
:100B4400217802EB011299B2A2F80C14EDE72DE919
:100B5400F04105462868B0F8443013F4004F00F023
:100B64000F82B0F84440A3B214F00F0440F0D880D0
:100B740013F0100F61D003889AB213F4006F40F0A1
:100B8400938012F4004FE5D0038823F070031B0513
:100B94001B0D43F0800303802868B0F850309BB2EB
:100BA40095F8682103EBC203063300EB4303B3F863
:100BB4000034C3F30903C5F884318BB1D5F87C1133
:100BC40071B1B5F86E2101F08CFFD5F88421D5F808
:100BD4007C311344C5F87C310021284602F08CFE98
:100BE4002B681A8812F4006FB4D1B3F8502092B273
:100BF4001344D5F87821002A79D1B3F80C2492B2A1
:100C040022F4F84292B2A3F80C24B3F80C246FEA4D
:100C140042426FEA524292B2A3F80C242A68138823
:100C24009BB223F4804323F0700383F4405343F4D2
:100C3400004343F0800313808CE703889BB223F4C2
:100C4400E14323F070036FEA43436FEA53439BB2DB
:100C540003802A68B2F850309BB295F8281003EB51
:100C6400C103023302EB4303B3F80034C3F30903B3
:100C74006B64EA6B1344EB630021284602F048FEE0
:100C840095F82430002B3FF465AF2B6C002B7FF4D8
:100C940061AF95F824302A6843F08003A2F84C3001
:100CA400002385F8243055E7B0F850309BB295F80E
:100CB400682103EBC203063300EB4303B3F80034AB
:100CC400C3F30903C5F88431B5F86E2105F52C7119
:100CD40001F007FF2A68138823F070031B051B0D1E
:100CE40043F080031380284602F0FEFD32E73E2ADB
:100CF40009D8510812F0010F00D001318A0292B2D2
:100D0400A3F80C248AE7510912F01F0F00D101390E
:100D14006FEAC1626FEA524292B2A3F80C247DE7F3
:100D240030F824309EB213F4004F4FD116F0800FE8
:100D34003FF410AF621C02EB820105EBC10128688D
:100D440030F824309BB223F4E14323F070036FEABC
:100D540043436FEA53439BB220F82430CB78032BF0
:100D640007D033B1022B40F0068116F4807F40F0A7
:100D740002812868B0F850309BB2621C02EB8202F8
:100D840015F8326003EBC603023300EB4303B3F8F8
:100D94000034C3F3090304EB840205EBC202126CB2
:100DA4009A4240F2D48004EB840705EBC707D21AB9
:100DB4003A6404EB840205EBC202126C002A40F090
:100DC400CD803146284602F0A3FDC3E630F8243036
:100DD40023F070031B051B0D43F0800320F824301F
:100DE40004EB8401C90001F5B47105EB010804EBBF
:100DF400840305EBC30393F87431002B42D12868B4
:100E0400B0F850309BB204EB840205EBC20292F8B6
:100E1400682103EBC203063300EB4303B3F8007409
:100E2400C7F3090717BB04EB840305EBC303D3F82B
:100E340084213A44C3F88421D3F87C213A44C3F88A
:100E44007C21D3F880313BB104EB840305EBC3036D
:100E5400D3F878319F4275D204EB840305EBC303C6
:100E640093F86811284602F047FD5FE704EB84011C
:100E740005EBC1013B46B1F86E21D1F87C1101F0BC
:100E840030FED0E704EB840305EBC30393F86B3126
:100E9400022B35D0296804EB840205EBC20292F8D8
:100EA400680131F820309BB223F4E04323F070034F
:100EB40043F4004343F0C00321F82030286892F83B
:100EC400682130F8223013F4804F20D0B0F850302D
:100ED4009BB203EBC203023300EB4303B3F8007489
:100EE400C7F30907002F9ED004EB840105EBC10171
:100EF4003B46B1F87021D1F87C1101F0F2FD92E784
:100F0400324641462846FFF7DFFA07468BE7B0F83A
:100F140050309BB203EBC203063300EB4303B3F838
:100F24000074C7F30907002F3FF47DAF04EB84017D
:100F340005EBC1013B46B1F87221D1F87C1101F0F7
:100F4400D0FD70E74146286801F072F9EEE604EB43
:100F5400840205EBC202002717642AE704EB84022B
:100F640005EBC202D66B1E44D663546C234453640F
:100F740001F05EF9EEE532462846FFF7D8FBE9E5D5
:100F84000020BDE8F08190F8A832012B0DD010B5F7
:100F94000446012380F8A83280F82410006801F088
:100FA40023F9002084F8A80210BD0220704710B570
:100FB40084B00446006801F021F910F4004F47D1D1
:100FC400206801F01BF910F4806F45D1206801F00E
:100FD40015F910F4804F08D02268B2F844309BB25F
:100FE40023F480439BB2A2F84430206801F006F950
:100FF40010F4005F08D02268B2F844309BB223F4A6
:1010040000539BB2A2F84430206801F0F7F810F4C2
:10101400805F32D1206801F0F1F810F4006F78D1CC
:10102400206801F0EBF810F4007F40F09D80206808
:1010340001F0E4F810F4807F08D02268B2F844305C
:101044009BB223F480739BB2A2F8443004B010BD69
:101054002046FFF77CFDB3E72268B2F844309BB228
:1010640023F480639BB2A2F84430204602F061FC72
:1010740000212046FFF787FFA8E72268B2F8403036
:101084009BB223F004039BB2A2F840302268B2F86A
:1010940040309BB223F008039BB2A2F840302046B4
:1010A40002F06AFC2268B2F844309BB223F4805305
:1010B4009BB2A2F84430ADE7226832F8231004AAA8
:1010C40002EB430222F8101C0133DBB2072BF3D9E5
:1010D4002268B2F840309BB243F00103A2F84030DA
:1010E4002268B2F840309BB223F001039BB2A2F80D
:1010F40040302368B3F8442012F4806FF9D0B3F879
:10110400442092B222F4806292B2A3F844200023D5
:101114000BE00023DAE7226804A901EB430131F86C
:10112400101C22F823100133DBB2072BF3D92268F9
:10113400B2F840309BB243F00803A2F84030226872
:10114400B2F844309BB223F400639BB2A2F844305B
:101154002268B2F840309BB243F00403A2F8403056
:10116400204602F0F9FB5BE72268B2F844309BB2F8
:1011740023F400739BB2A2F84430204602F0D3FB60
:1011840055E710B504468C4611F0800F2AD101F0C2
:10119400070000EB8001C90001F5B47E04EB0E01E9
:1011A40000EB800004EBC0004FF0000E80F869E112
:1011B4000CF0070C81F800C00A61CB704A780AB1C0
:1011C400A1F80EC0022B19D094F8A832012B18D024
:1011D400012384F8A832206800F0E9FC002084F898
:1011E400A80210BD01F00700013000EB800104EB00
:1011F400C1014FF0010E81F801E0D9E700230B7122
:10120400E2E70220EDE710B504460B4611F0800F2B
:101214001FD101F0070202EB8201C90001F5B4718C
:10122400014402EB820200EBC202002082F8690151
:1012340003F007030B7094F8A832012B13D0012399
:1012440084F8A832206800F06EFE002084F8A8021A
:1012540010BD01F00702013202EB820100EBC10173
:1012640001204870E4E70220F2E710B501F007041A
:1012740004EB8401C90001F5B471014404EB840C4E
:1012840000EBCC0CCCF87C21CCF880310023CCF8DA
:1012940084318CF869318CF8684124B9006800F015
:1012A400C7FF002010BD006800F0C2FFF9E710B5C9
:1012B40001F0070404F1010C0CEB8C0100EBC101FB
:1012C40004EB840E00EBCE0ECEF83C20CEF840307A
:1012D40001228EF84C20CEF848300023CEF844305A
:1012E4004A700CEB8C0C00F83C4024B9006800F008
:1012F4009FFF002010BD006800F09AFFF9E738B5A1
:1013040001F007054268954231D804460B4611F0B6
:10131400800F1ED101EB8101C90001F5B4710144B4
:1013240003EB830300EBC303002283F86921012349
:101334008B700D7094F8A832012B1AD0012384F815
:10134400A832206800F0DAFE5DB1002084F8A8021B
:1013540038BD6B1C03EB830100EBC10101224A7011
:10136400E5E704F52C71206800F04CFFEDE701205F
:10137400EEE70220ECE70B4601F00F0142689142D0
:1013840030D810B5044613F0800F21D103F00702C2
:1013940002EB8201C90001F5B471014402EB82023F
:1013A40000EBC202002082F8690100228A7003F077
:1013B40007030B7094F8A832012B15D0012384F88D
:1013C400A832206800F0BFFE002084F8A80210BDF7
:1013D40003F00702013202EB820100EBC10101209C
:1013E4004870E2E7012070470220F0E711F0800F17
:1013F4000BD001F00701013101EB810100EBC101C8
:1014040052B90A73CB800020704701EB8101C900F7
:1014140001F5B4710144F3E701220A730B811B0C3B
:101424004B81F0E782B0084B1B68084AA2FB0323F8
:101434005B0A00FB03F3019300BF019B5A1E019258
:10144400002BF9D102B0704700000020D34D621088
:10145400002800F0F18170B582B00446036813F0EF
:10146400010F2CD0994B5B6803F00C03042B1DD0A7
:10147400964B5B6803F00C03082B12D06368B3F53A
:10148400803F41D0002B55D103F1804303F5043351
:101494001A6822F480321A601A6822F480221A60D0
:1014A40037E08A4B5B6813F4803FE7D0874B1B68B7
:1014B40013F4003F03D06368002B00F0BF8123685E
:1014C40013F0020F75D0814B5B6813F00C0F5FD0E3
:1014D4007E4B5B6803F00C03082B54D02369002B6C
:1014E40000F08A807A4B01221A60FEF77BFF0546E2
:1014F400764B1B6813F0020F75D1FEF773FF401B88
:101504000228F5D903209EE1704A136843F480331E
:101514001360636843B3FEF765FF05466B4B1B68B6
:1015240013F4003FCBD1FEF75DFF401B6428F5D9CF
:10153400032088E1B3F5A02F09D0644B1A6822F484
:1015440080321A601A6822F480221A60E1E703F1FB
:101554008043A3F53C331A6842F480221A601A6867
:1015640042F480321A60D4E7FEF73CFF0546574B3D
:101574001B6813F4003FA2D0FEF734FF401B64281D
:10158400F5D903205FE1514B5B6813F4803FA5D18B
:101594004E4B1B6813F0020F03D02369012B40F05C
:1015A4004F814A4A136823F0F803616943EAC1038F
:1015B4001360236813F0080F33D0A369002B5CD0A9
:1015C400434B0122C3F88024FEF70CFF05463F4B32
:1015D4005B6A13F0020F21D1FEF704FF401B0228BF
:1015E400F5D903202FE1394A136823F0F803616920
:1015F40043EAC1031360DCE7354B00221A60FEF7AF
:10160400F1FE0546314B1B6813F0020FD1D0FEF7F3
:10161400E9FE401B0228F5D9032014E10120FFF75D
:1016240001FF236813F0040F00F09680274BDB6959
:1016340013F0805F34D1254BDA6942F08052DA61CD
:10164400DB6903F080530193019B0125214B1B6847
:1016540013F4807F26D0E368012B3DD0002B53D1B7
:1016640003F1804303F504331A6A22F001021A627B
:101674001A6A22F004021A6233E0154B0022C3F8FE
:101684008024FEF7AFFE0546104B5B6A13F0020F91
:10169400C7D0FEF7A7FE401B0228F5D90320D2E0ED
:1016A4000025D3E70B4A136843F480731360FEF7F5
:1016B40099FE0646074B1B6813F4807FCBD1FEF7D7
:1016C40091FE801B6428F5D90320BCE00010024081
:1016D40000004242007000405F4A136A43F0010375
:1016E4001362E36833B3FEF77DFE06465A4B1B6A6A
:1016F40013F0020F2FD1FEF775FE801B41F28833E1
:101704009842F3D903209EE0052B09D0524B1A6A64
:1017140022F001021A621A6A22F004021A62E0E755
:101724004D4B1A6A42F004021A621A6A42F001022C
:101734001A62D6E7FEF756FE0646474B1B6A13F0BD
:10174400020F08D0FEF74EFE801B41F28833984208
:10175400F3D9032077E0E5B9E369002B72D03E4A60
:10176400526802F00C02082A56D0022B17D03B4BC9
:1017740000221A66FEF736FE0446374B1B6813F048
:10178400007F47D0FEF72EFE001B0228F5D9032068
:1017940059E0314AD36923F08053D361DCE72F4BFE
:1017A40000221A66FEF71EFE05462B4B1B6813F03B
:1017B400007F06D0FEF716FE401B0228F5D9032051
:1017C40041E0236AB3F5803F1AD023494B6823F4E0
:1017D4007413226A606A024313434B601F4B012255
:1017E4001A66FEF7FFFD04461B4B1B6813F0007FCF
:1017F4000ED1FEF7F7FD001B0228F5D9032022E0E5
:10180400154A536823F40033A1680B435360DCE7A3
:10181400002018E0002016E0012B16D00E4B5B6868
:1018240003F48031226A914211D103F47013626A85
:1018340093420ED1002006E001207047012002E00F
:10184400012000E0002002B070BD0120FBE7012070
:10185400F9E70120F7E700BF001002400000424210
:1018640086B0174B0FCB0DF1180C0CE90F0040F2AA
:101874000123ADF80430134B5B6803F00C02082A13
:1018840002D0114806B07047C3F3834218326A4449
:1018940012F8100C13F4803F0DD00A4B5B68C3F3AD
:1018A400404318336B4413F8143C074A02FB00F01E
:1018B400B0FBF3F0E6E7054B03FB00F0E2E700BF03
:1018C400FC3C00080010024000127A0000093D00B0
:1018D400002800F0A08070B50D460446524B1B68EA
:1018E40003F007038B420BD24F4A136823F007031C
:1018F4000B431360136803F007038B4240F08D80A1
:10190400236813F0020F17D013F0040F04D0474AD2
:10191400536843F4E0635360236813F0080F04D062
:10192400424A536843F460535360404A536823F077
:10193400F003A1680B435360236813F0010F31D007
:101944006368012B20D0022B25D0384A126812F08C
:10195400020F64D035494A6822F0030213434B60F6
:10196400FEF740FD0646314B5B6803F00C036268EA
:10197400B3EB820F16D0FEF735FD801B41F288339E
:101984009842F0D9032045E0284A126812F4003F37
:10199400E0D101203EE0254A126812F0007FD9D13F
:1019A400012037E0204B1B6803F00703AB420AD940
:1019B4001D4A136823F007032B431360136803F0D5
:1019C4000703AB422DD1236813F0040F06D0174A46
:1019D400536823F4E063E1680B435360236813F016
:1019E400080F07D0114A536823F46053216943EA6E
:1019F400C1035360FFF734FF0C4B5B68C3F303135D
:101A04000B4AD35CD8400B4B18600B4B1868FEF79D
:101A1400A5FC002070BD012070470120FAE70120D9
:101A2400F8E70120F6E700BF002002400010024062
:101A3400EC3C0008000000200800002070B582B0D3
:101A44000446036813F0010F36D03F4BDB6913F0F3
:101A5400805F49D13C4BDA6942F08052DA61DB693C
:101A640003F080530193019B0125384B1B6813F449
:101A7400807F3BD0344B1B6A13F4407313D06268ED
:101A840002F440729A420ED02F4A136A23F4407033
:101A94002F490126C1F840640026C1F84064106251
:101AA40013F0010F36D1284A136A23F44073616896
:101AB4000B431362002D3ED1236813F0020F06D0AE
:101AC400214A536823F44043A1680B4353602368BD
:101AD40013F0100F34D01C4A536823F48003616957
:101AE4000B43536000202CE00025BEE7174A13681F
:101AF40043F480731360FEF775FC0646134B1B68B2
:101B040013F4807FB6D1FEF76DFC801B6428F5D9F1
:101B1400032016E0FEF766FC06460B4B1B6A13F027
:101B2400020FC0D1FEF75EFC801B41F2883398425D
:101B3400F3D9032005E0D36923F08053D361BBE7D5
:101B4400002002B070BD00BF0010024000700040D1
:101B54000000424284B001A880E80E00002004B0D6
:101B6400704703460020A3F844004FF43F42A3F813
:101B740040207047B0F8403023F47C535B045B0C86
:101B8400A0F84030002070470020704784B084469D
:101B940001A880E80E000123ACF840300020ACF826
:101BA4004000ACF84400ACF8500004B0704710B5E5
:101BB400034691F800C030F82C2092B222F4EC4293
:101BC40022F0700292B2C878032861D8DFE800F0EE
:101BD400555C0258002048F2800E42EA0E0223F8B7
:101BE4002C2091F800C033F82C2092B222F4E04269
:101BF40022F070024CEA020242EA0E0223F82C2080
:101C04000A7B002A40F0C4804A78002A51D0B3F8F5
:101C1400502092B21A440C7802EB0412B1F806C0B8
:101C24004FEA5C0C4FEA4C0CA2F800C40C7833F871
:101C3400242012F0400F0CD033F8242092B222F466
:101C4400E04222F0700242F4004242F0C00223F863
:101C54002420CA78012A1DD0097833F8212092B2B1
:101C640022F4E04222F0400282F0200242F40042D8
:101C740042F0800223F821206AE042F40072AAE7CD
:101C840042F4C0620020A6E742F480620020A2E78A
:101C94000120A0E7097833F8212092B222F4E0422F
:101CA40022F0400242F4004242F0800223F8212054
:101CB4004EE0B3F8502092B21A440C7802EB0412AE
:101CC400B1F806C04FEA5C0C4FEA4C0CA2F808C409
:101CD400B3F8502092B21A440C7802EB04120C6947
:101CE400BCBBB2F80CC41FFA8CFC2CF4F84C1FFAE1
:101CF4008CFCA2F80CC4B2F80CC46FEA4C4C6FEA2A
:101D04005C4C1FFA8CFCA2F80CC40C7833F8242029
:101D140012F4804F0CD033F8242092B222F4E04223
:101D240022F0700242F4404242F0800223F8242060
:101D3400097833F8212092B222F4804222F0700212
:101D440082F4405242F4004242F0800223F82120FF
:101D540010BD3E2C0DD84FEA540C14F0010F01D0E5
:101D64000CF1010C4FEA8C2C1FFA8CFCA2F80CC469
:101D7400CBE74FEA541C14F01F0F01D10CF1FF3CC8
:101D84006FEACC646FEA5444A4B2A2F80C44BCE7F2
:101D940091F800C033F82C2092B222F4E04222F0F1
:101DA400700242F4014242F0800223F82C20B3F87E
:101DB400502092B21A4491F800C002EB0C12B1F810
:101DC40008C04FEA5C0C4FEA4C0CA2F800C4B3F80C
:101DD400502092B21A4491F800C002EB0C12B1F8F0
:101DE4000AC04FEA5C0C4FEA4C0CA2F808C44A78CB
:101DF400002A41D10C7833F8242012F4804F0CD0FF
:101E040033F8242092B222F4E04222F0700242F429
:101E1400404242F0800223F824200C7833F8242036
:101E240012F0400F0CD033F8242092B222F4E04296
:101E340022F0700242F4004242F0C00223F824204F
:101E440091F800C033F82C2092B222F4804222F0A0
:101E5400700282F4405248F28004224323F82C207A
:101E6400097833F8212092B222F4E04222F04002B1
:101E7400224323F821206BE70C7833F8242012F452
:101E8400804F0CD033F8242092B222F4E04222F0A6
:101E9400700242F4404242F0800223F824200C787D
:101EA40033F8242012F0400F0CD033F8242092B2DF
:101EB40022F4E04222F0700242F4004242F0C002F6
:101EC40023F82420CA78012A1ED00C7833F8242061
:101ED40092B222F4E04222F0400282F0200242F464
:101EE400004242F0800223F82420097833F82120AC
:101EF40092B222F4804222F0700242F4004242F094
:101F0400800223F8212023E70C7833F8242092B2AE
:101F140022F4E04222F0400242F4004242F0800205
:101F240023F82420E1E70B7B002B46D14B7813B335
:101F34000A7830F8223013F0400F0CD030F82230F9
:101F44009BB223F4E04323F0700343F4004343F0D3
:101F5400C00320F822300A7830F822309BB223F4F0
:101F6400E04323F0400343F4004343F0800320F8AC
:101F74002230002070470A7830F8223013F4804F62
:101F84000CD030F822309BB223F4E04323F07003EA
:101F940043F4404343F0800320F822300A7830F8B9
:101FA40022309BB223F4804323F0700343F40043B4
:101FB40043F0800320F82230DBE74B78002B4ED12E
:101FC4000A7830F8223013F4804F0CD030F82230E5
:101FD4009BB223F4E04323F0700343F4404343F003
:101FE400800320F822300A7830F8223013F0400FB2
:101FF4000CD030F822309BB223F4E04323F070037A
:1020040043F4004343F0C00320F822300A7830F848
:1020140022309BB223F4E04323F0700343F40043E3
:1020240043F0C00320F822300B7830F8232092B21A
:1020340022F4804222F0700248F2800C42EA0C0240
:1020440020F823200A7830F822309BB223F4E043AE
:1020540023F0400343EA0C0320F8223089E70A788E
:1020640030F8223013F4804F0CD030F822309BB279
:1020740023F4E04323F0700343F4404343F080032C
:1020840020F822300A7830F8223013F0400F0CD0B8
:1020940030F822309BB223F4E04323F0700343F47E
:1020A400004343F0C00320F822300A7830F822308D
:1020B4009BB223F4E04323F0700343F4404343F022
:1020C400800320F822300B7830F8232092B222F4D7
:1020D400E04222F0400248F2800C42EA0C0220F86E
:1020E40023200A7830F822309BB223F4804323F073
:1020F400700343EA0C0320F822303AE74B788BB1A3
:102104000A7830F822309BB223F4E04323F04003F2
:1021140083F0100343F4004343F0800320F822309B
:10212400002070470A7830F822309BB223F48043B1
:1021340023F0700383F4805343F4004343F080039B
:1021440020F82230ECE70B7B002B4BD14B7833B3D8
:102154000A7830F8223013F0400F0CD030F82230D7
:102164009BB223F4E04323F0700343F4004343F0B1
:10217400C00320F82230CB78012B33D00A7830F812
:1021840022309BB223F4E04323F0400383F0200386
:1021940043F4004343F0800320F8223022E00A781D
:1021A40030F8223013F4804F0CD030F822309BB238
:1021B40023F4E04323F0700343F4404343F08003EB
:1021C40020F822300A7830F822309BB223F480437E
:1021D40023F0700383F4405343F4004343F080033B
:1021E40020F822300020704711B98023A0F84C3029
:1021F400002070470020704700207047B0F844006A
:1022040080B270470020704710B45C1C640800EB77
:10221400420202F5806207E00B78487843EA002323
:1022240022F8043B0231013C002CF5D110BC70476C
:1022340070B505460C464B78012B37D00A7B002A33
:1022440040F026838B690A69934240F204839B1A07
:102254008B61B5F850309BB22B44217803EB01130A
:10226400002A40F0FC82B3F80C2492B222F4F84223
:1022740092B2A3F80C24B3F80C246FEA42426FEA3A
:10228400524292B2A3F80C24227835F822309BB241
:1022940023F4804323F0700383F4405343F4004356
:1022A40043F0800325F82230002070BD8E690A694E
:1022B400964200D91646237B002B39D0E378022BB3
:1022C40058D0227835F822309BB223F4E04323F02F
:1022D400700343F4014343F0800325F82230236A5A
:1022E4009B1B2362237835F8232012F0400F00F063
:1022F40026826278002A40F0CA81B5F8502092B252
:102304002A4402EB0313002E40F0A881B3F80C24F6
:1023140092B222F4F84292B2A3F80C24B3F80C243B
:102324006FEA42426FEA524292B2A3F80C24B0E13F
:10233400B6B23346E28861692846FFF765FFB5F80F
:1023440050309BB22B44227803EB0213A3F80464AD
:10235400227835F822309BB223F4E04323F0400383
:1023640083F0300343F4004343F0800325F8223024
:1023740000209AE7236A9A4280F05281227835F845
:1023840022309BB223F4E04323F0700343F401436F
:1023940043F0800325F82230236A9B1B23622378B1
:1023A40035F8232012F0400F00F09D8062788ABB3C
:1023B400B5F8502092B22A4402EB03138EB9B3F855
:1023C4000C2492B222F4F84292B2A3F80C24B3F88B
:1023D4000C246FEA42426FEA524292B2A3F80C24F0
:1023E4001AE03E2E09D8720816F0010F00D001320F
:1023F400920292B2A3F80C240EE0720916F01F0F99
:1024040000D1013A6FEAC2626FEA524292B2A3F873
:102414000C2401E0012A2BD0B3B2628961692846F9
:10242400FFF7F2FE636933446361236A22699342CE
:1024340028D99B1B23626378002B40D1B5F8503018
:102444009BB22B44227803EB0213FEB9B3F80424A5
:1024540092B222F4F84292B2A3F80424B3F804240A
:102464006FEA42426FEA524292B2A3F8042428E08F
:10247400B5F8502092B22A4402EB0313B2B2A3F887
:102484000C24C9E7002222621E46D4E73E2E09D856
:10249400720816F0010F00D00132920292B2A3F832
:1024A40004240EE0720916F01F0F00D1013A6FEAFE
:1024B400C2626FEA524292B2A3F8042401E0012BF3
:1024C40006D0B3B2228961692846FFF79DFE3FE733
:1024D400B5F850309BB22B44227803EB0213B2B20E
:1024E400A3F80424EDE762788ABBB5F8502092B2D1
:1024F4002A4402EB03138EB9B3F8042492B222F4F3
:10250400F84292B2A3F80424B3F804246FEA4242D6
:102514006FEA524292B2A3F804241AE03E2E09D87C
:10252400720816F0010F00D00132920292B2A3F8A1
:1025340004240EE0720916F01F0F00D1013A6FEA6D
:10254400C2626FEA524292B2A3F8042401E0012A63
:102554002BD0B3B2228961692846FFF755FE63691F
:1025640033446361236A2269934228D99B1B236203
:102574006378002B40D1B5F850309BB22B442278BD
:1025840003EB0213FEB9B3F80C2492B222F4F8421E
:1025940092B2A3F80C24B3F80C246FEA42426FEA17
:1025A400524292B2A3F80C2428E0B5F8502092B21B
:1025B4002A4402EB0313B2B2A3F80424C9E70022AD
:1025C40022621E46D4E73E2E09D8720816F0010F87
:1025D40000D00132920292B2A3F80C240EE07209E8
:1025E40016F01F0F00D1013A6FEAC2626FEA52423D
:1025F40092B2A3F80C2401E0012B06D0B3B2628995
:1026040061692846FFF700FEA2E6B5F850309BB298
:102614002B44227803EB0213B2B2A3F80C24EDE7A7
:10262400217835F8212092B222F4E24222F070029D
:1026340042F4004242F0800225F82120B5F85020EF
:1026440092B22A44217802EB01129BB2A2F804341C
:10265400228961692846FFF7D7FD79E63E2E09D81D
:10266400720816F0010F00D00132920292B2A3F860
:102674000C240EE0720916F01F0F00D1013A6FEA24
:10268400C2626FEA524292B2A3F80C2401E0012A1A
:1026940026D0B3B2628961692846FFF7B5FD636944
:1026A40033446361236A2269934223D99B1B2362C7
:1026B400002E3FF44DAE63786BBBB5F850309BB23F
:1026C4002B44227803EB02133E2E17D8720816F01F
:1026D400010F00D00132920292B2A3F804241CE04C
:1026E400B5F8502092B22A4402EB0313B2B2A3F815
:1026F4000C24CEE7002222621E46D9E7720916F0A6
:102704001F0F00D1013A6FEAC2626FEA524292B2DD
:10271400A3F8042401E0012B06D0B3B22289616935
:102724002846FFF771FD13E6B5F850309BB22B44F1
:10273400227803EB0213B2B2A3F80424EDE7627823
:102744008ABBB5F8502092B22A4402EB03138EB927
:10275400B3F8042492B222F4F84292B2A3F8042407
:10276400B3F804246FEA42426FEA524292B2A3F8E9
:1027740004241AE03E2E09D8720816F0010F00D086
:102784000132920292B2A3F804240EE0720916F008
:102794001F0F00D1013A6FEAC2626FEA524292B24D
:1027A400A3F8042401E0012A26D0B3B22289616986
:1027B4002846FFF729FD636933446361236A22696C
:1027C400934223D99B1B2362002E3FF4C1AD63784F
:1027D4006BBBB5F850309BB22B44227803EB021349
:1027E4003E2E17D8720816F0010F00D00132920263
:1027F40092B2A3F80C241CE0B5F8502092B22A44FB
:1028040002EB0313B2B2A3F80424CEE7002222623F
:102814001E46D9E7720916F01F0F00D1013A6FEA7C
:10282400C2626FEA524292B2A3F80C2401E0012B77
:1028340006D0B3B2628961692846FFF7E5FC87E5F3
:10284400B5F850309BB22B44227803EB0213B2B29A
:10285400A3F80C24EDE700228A611A46F9E43E2A23
:1028640009D8510812F0010F00D00131890289B250
:10287400A3F80C1408E5510912F01F0F00D1013917
:102884006FEAC1616FEA514189B2A3F80C14FBE409
:10289400CA78022A45D0012A40F020818969226938
:1028A400914240F2D480891AA161D3B9B5F850306D
:1028B4009BB22B44217803EB0113002A40F0CB8018
:1028C400B3F8041489B221F4F84189B2A3F80414CA
:1028D400B3F804146FEA41416FEA514189B2A3F895
:1028E40004146378002B40F0EA80B5F850309BB2B2
:1028F4002B44217803EB0113002A40F0C580B3F880
:102904000C2492B222F4F84292B2A3F80C24B3F845
:102914000C246FEA42426FEA524292B2A3F80C24AA
:10292400B2E4CBB9B0F850309BB203440A7803EB5D
:1029340002130A6972BBB3F8042492B222F4F84277
:1029440092B2A3F80424B3F804246FEA42426FEA73
:10295400524292B2A3F804246378002B4CD1B5F808
:1029640050309BB22B44227803EB0213226952BBF2
:10297400B3F80C2492B222F4F84292B2A3F80C24D5
:10298400B3F80C246FEA42426FEA524292B2A3F8BF
:102994000C2433E03E2A09D8510812F0010F00D06C
:1029A40001318A0292B2A3F80424D5E7510912F046
:1029B4001F0F00D101396FEAC1626FEA524292B22D
:1029C400A3F80424C8E73E2A09D8510812F0010FDD
:1029D40000D001318A0292B2A3F80C240EE051090E
:1029E40012F01F0F00D101396FEAC1626FEA52423F
:1029F40092B2A3F80C2401E0012B1DD0E369002B53
:102A04003FF442AC227835F8221044F2400303EA42
:102A140001008B4302D000287FF436AC35F8223015
:102A24009BB223F4E04323F0700343F4004343F0E8
:102A3400C00325F8223027E4B5F850309BB22B446C
:102A4400227803EB0213228AA3F80C24D6E700228F
:102A5400A2610A4629E73E2A09D8510812F0010F5B
:102A640000D00131890289B2A3F8041439E751096D
:102A740012F01F0F00D101396FEAC1616FEA5141B1
:102A840089B2A3F804142CE73E2A0AD8510812F09C
:102A9400010F00D001318A0292B2A3F80C24FFF78F
:102AA400F3BB510912F01F0F00D101396FEAC16263
:102AB4006FEA524292B2A3F80C24FFF7E5BB012B54
:102AC4007FF4E2ABB5F850309BB22B44217803EB92
:102AD400011392B2A3F80C24FFF7D6BB0120FFF731
:102AE400E4BB10B45C0800EB420000F5806007E032
:102AF40030F8042B0A70C2F307224A700231013CF9
:102B0400002CF5D113F0010F01D003880B7010BC19
:102B140070470000292303800048704744000020C8
:102B24002923038000487047700000202923038074
:102B340000487047B4000020D0F8B832002083F871
:102B44005000704710B5D0F8B842E36C012B01D0A7
:102B5400002010BDD0F8BC32DB686178207898473B
:102B64000023E364F4E700000A230380004870476D
:102B7400A800002038B50446D0F8B852D0F8BC32CA
:102B8400DB6869782878984740232A460121204643
:102B940000F084FF002038BD70B582B0D0F8B85280
:102BA4000023ADF806300C7814F060042FD0202CEC
:102BB4007DD14B78023B092B25D8DFE803F01509BA
:102BC40024242424241C10058B782B64002471E015
:102BD400012205F1400100F051FD00246AE04B8818
:102BE4001B0A6B64002465E0012205F1440100F036
:102BF40045FD00245EE00123EB64CA88294600F009
:102C040052FD002456E000F02DFA022452E04E78E2
:102C14000B2E48D8DFE806F00647474747471547D5
:102C240047472E3C90F89C32032B03D000F01AFA4D
:102C340002243FE002220DF1060100F01FFD34469C
:102C440038E04B881B0A222B06D0212B0CD0002104
:102C54000A4600F013FD2DE0CA88222A28BF22224A
:102C6400D0F8BC321968F4E7CA88092A28BF0922B7
:102C74001249EEE790F89C32032B03D000F0F2F9EE
:102C8400022417E0012205F1480100F0F7FC11E0ED
:102C940090F89C32032B02D18B78AB640AE000F0ED
:102CA400E1F9022406E000F0DDF9022402E000F07C
:102CB400D9F90224204602B070BD00BF9C00002058
:102CC40038B50446812100F0AAFE0025E562012101
:102CD400204600F0A4FEC4F86C51D4F8B8324BB1CD
:102CE400D4F8BC329B689847D4F8B80200F0E2FEEE
:102CF400C4F8B852002038BD70B50446022303223C
:102D0400812100F081FE0125E56202230322294688
:102D1400204600F079FEC4F86C51542000F0C6FE41
:102D2400C4F8B80278B10546002680F85060D4F89B
:102D3400BC325B68984740232A460121204600F0B4
:102D4400ADFE304670BD0120FCE719B1C0F8BC12DD
:102D5400002070470220704798B108B50346D0F8A8
:102D6400B40210B10020C3F8B40209B1C3F8B01220
:102D7400012183F89C121A70184600F003FE00200B
:102D840008BD0220704719B1C0F8B4120020704782
:102D94000220704708B500F02FFE002008BD08B5DA
:102DA400D0F8B4322BB11B68984700B908BD022093
:102DB400FCE70220FAE708B5D0F8B4325B6898471C
:102DC400002008BD38B5044600F52A75284600F0F1
:102DD40035F90123C4F89432B4F8AE32C4F8983209
:102DE40094F8A81201F01F03012B0ED0022B11D06E
:102DF4002BB101F08001204600F019FE03E02946C2
:102E0400204600F0C9FA002038BD2946204600F0CB
:102E1400F7FAF8E72946204600F022FBF3E738B535
:102E240004460D4691BB1346D0F89422032A03D0DE
:102E3400052A24D0084633E0D0F86011D0F8642184
:102E440091420DD9891AC0F860118A4206D98AB212
:102E54001946204600F036FC284621E092B2F7E7F6
:102E6400D0F8B4321B691BB190F89C22032A04D019
:102E7400204600F02FFC284612E09847F8E700218E
:102E8400C0F8941200F0D3FD284609E0D0F8B4321B
:102E94009B6933B190F89C22032A04D198470020FF
:102EA40038BD0220FCE70220FAE738B504460D4697
:102EB400002953D11346D0F89422022A0CD0042AB4
:102EC40000D01AB98021204600F0B1FD94F8A03258
:102ED400012B3ED0284638BD016A426A91421BD874
:102EE400C169B1FBF2F302FB13132BB98A4203D875
:102EF400D0F8983299421CD3D4F8B432DB681BB1B1
:102F040094F89C22032A21D08021204600F08FFDD2
:102F1400204600F0EAFBD9E78A1A026292B2194607
:102F240000F0B9FB00231A461946204600F0B6FD0E
:102F3400CCE70022114600F0AEFB0021C4F8981241
:102F44000B460A46204600F0A9FDBFE720469847F5
:102F5400DAE7002384F8A0322846BCE7D0F8B4327C
:102F64005B6933B190F89C22032A04D1984700206E
:102F7400B1E70220AFE70220ADE770B50446402375
:102F84000022114600F040FD0125C4F858514026A6
:102F9400C4F86461334600228021204600F034FDE9
:102FA400A561666284F89C520023C4F8943263607D
:102FB400C4F8A432D4F8B8322BB1D4F8B4325B6874
:102FC400002120469847002070BD017400207047FE
:102FD40090F89C3280F89D32042380F89C320020C3
:102FE400704790F89C32042B01D00020704790F871
:102FF4009D3280F89C32F8E708B590F89C32032B98
:1030040001D0002008BDD0F8B432DB69002BF8D021
:103014009847F6E70346002002E00130C0B20133CE
:103024001A78002AF9D1704708B54B88012B00D0D3
:1030340008BDC0F8A43200F04DFBF9E70B7803702B
:103044004B7843708B78CA7803EB022343800B7967
:103054004A7903EB022383808B79CA7903EB022339
:10306400C380704710B50446802100F0E0FC0021C5
:10307400204600F0DCFC10BD30B583B005460C469C
:103084000023ADF806304A88130A013B062B00F2F0
:10309400A480DFE803F004182CA2A2869300D0F8E1
:1030A400B0321B680DF10601007C9847BDF806207C
:1030B4001AB1E388002B40F09480E388002B00F0E1
:1030C4009A8003B030BD037C43B9D0F8B4329B6A14
:1030D4000DF10600984702234370E7E7D0F8B432B5
:1030E400DB6A0DF10600984702234370DEE7D2B293
:1030F400052A52D8DFE802F003101D2A3744D0F81D
:10310400B0325B6823B10DF10601007C9847CDE72E
:103114002146FFF7A7FFD4E7D0F8B0329B6823B16C
:103124000DF10601007C9847C0E72146FFF79AFF9E
:10313400C7E7D0F8B032DB6823B10DF10601007C9B
:103144009847B3E72146FFF78DFFBAE7D0F8B032CE
:103154001B6923B10DF10601007C9847A6E72146BF
:10316400FFF780FFADE7D0F8B0325B6923B10DF112
:103174000601007C984799E72146FFF773FFA0E713
:10318400D0F8B0329B6923B10DF10601007C984759
:103194008CE72146FFF766FF93E72146FFF762FFBE
:1031A4008FE7037C33B9D0F8B4325B6B0DF10600C2
:1031B40098477BE72146FFF755FF82E7037C43B935
:1031C400D0F8B4321B6B0DF1060098470723437007
:1031D4006CE72146FFF746FF73E72146FFF742FFFE
:1031E4006FE79A4228BF1A46ADF8062001462846E2
:1031F40000F044FA61E7284600F06CFA61E738B55C
:1032040004468B88F3B9CB88E3B94B887F2B19D854
:1032140003F07F0590F89C32032B0CD080F89E526B
:10322400294600F02BFC204600F054FA35B1022365
:1032340084F89C3209E0FFF715FF06E0012384F8C7
:103244009C3202E02046FFF70DFF38BD38B5044636
:103254000D468978284B197001290ED890F89C32B4
:10326400022B0ED0032B21D02946FFF7FBFE224B65
:1032740019782046FFF79FFD02E02946FFF7F2FE8A
:1032840038BD81B14160032380F89C32FFF787FD8C
:10329400022803D0204600F01DFAF1E72946204613
:1032A400FFF7E0FEECE700F015FAE9E789B14368BF
:1032B40099421DD0D9B2FFF77EFD0F4B197861609A
:1032C4002046FFF76CFD02280DD0204600F002FADC
:1032D400D6E7022380F89C324160FFF76CFD20465C
:1032E40000F0F8F9CCE729462046FFF7BBFEC7E714
:1032F40000F0F0F9C4E700BFB405002008B5CB889E
:10330400012B0AD190F89C32022B09D9032B09D145
:103314000122011D00F0B2F901E0FFF7A3FE08BD90
:103324005BB213B9FFF79EFEF9E70146002341F8AB
:10333400083F012200F0A2F9F1E708B590F89C32A9
:10334400013B022B12D8CB88022B0CD10123C36082
:10335400D0F8A4320BB10323C360022200F10C01A4
:1033640000F08CF908BDFFF77DFEFBE7FFF77AFE5E
:10337400F8E708B590F89C32013B022B09D84B883A
:10338400012B00D008BD0023C0F8A43200F0A2F93C
:10339400F8E7FFF767FEF5E708B50B7803F060037D
:1033A400202B05D0402B03D043B1FFF75BFE03E095
:1033B400D0F8B4329B689847002008BD4B78092B9D
:1033C4001BD8DFE803F011171A141A08051A0E0B9C
:1033D400FFF752FEF0E7FFF712FFEDE7FFF736FFC6
:1033E400EAE7FFF78BFFE7E7FFF7A7FFE4E7FFF75D
:1033F4001BFEE1E7FFF7BDFFDEE7FFF733FEDBE788
:1034040038B505460C460B7803F06003202B06D034
:10341400402B04D01BB1FFF725FE002038BD95F8E2
:103424009C32013B022B16D82379012B0ED8D5F8F8
:10343400B4329B68214628469847E388002BECD198
:103444000028EAD1284600F045F9E6E72146284657
:10345400FFF708FEE1E721462846FFF703FEDCE715
:1034640070B505468B880C7804F06004202C07D0D6
:10347400DAB2402C04D05CB1FFF7F4FD002405E07F
:10348400D5F8B4329B68284698470024204670BD7E
:10349400202C09D04E78012E33D0032E0AD0002ED2
:1034A40055D0FFF7DFFDF1E7D0F8B4329B689847B9
:1034B4000446EBE790F89C32022B04D0032B11D086
:1034C400FFF7D0FDE2E70AB1802A03D12846FFF7CF
:1034D400C9FDDBE7114600F0AAFA8021284600F076
:1034E400A6FAD3E74B8823B91AB1802A01D0CB8836
:1034F4001BB1284600F0EEF8C8E7114600F097FA31
:10350400F7E790F89C32022B04D0032B11D0FFF77D
:10351400A9FDBBE70AB1802A03D12846FFF7A2FD23
:10352400B4E7114600F083FA8021284600F07FFAC0
:10353400ACE74B88002BA9D112F07F0F03D12846AA
:1035440000F0C8F8A2E7114600F079FAF7E790F81E
:103554009C02022806D0032829D02846FFF782FDC2
:10356400344693E70AB1802A13D113F0800F15D1A2
:1035740002F07F0202EB8202910001F5A871294456
:10358400043100230B600222284600F077F8344609
:103594007CE72846FFF766FD344677E702F07F02B2
:1035A40002EB82029100103129440431E9E75BB255
:1035B400002B1FDB02F00F0000EB800005EB800006
:1035C400D0F8580120B3002B27DB02F07F0303EB74
:1035D40083039C0004F5A8742C4404340AB1802AA3
:1035E40024D10023236002222146284600F046F815
:1035F40034464BE702F00F0000EB800005EB80003F
:1036040080690028DFD12846FFF72CFD34463DE7CA
:103614002846FFF727FD344638E702F07F0303EB23
:1036240083039C0010342C440434D7E71146284605
:1036340000F00DFA10B101232360D4E700232360C6
:10364400D1E7D0B170B50D4616460446FFF7E2FC4B
:10365400431C5B009BB233802B7003236B700223EB
:1036640007E001345A1CD2B2E8540233DBB2002121
:10367400A95420780028F4D170BD704708B51346CA
:103684000222C0F89422C36103620A46002100F0BA
:10369400FDF9002008BD08B513460A46002100F0D4
:1036A400F5F9002008BD08B513460322C0F894229A
:1036B400C0F85C31C0F860310A46002100F0EEF930
:1036C400002008BD08B513460A46002100F0E6F9BB
:1036D400002008BD08B50423C0F8943200231A461C
:1036E400194600F0D3F9002008BD08B50523C0F839
:1036F400943200231A46194600F0D0F9002008BD80
:1037040008B500220F491048FFF726FB70B90F498E
:103714000D48FFF738FB60B90D490B48FFF715FB5F
:1037240050B90948FFF736FB48B908BDFCF790FDCE
:10373400EDE7FCF78DFDEFE7FCF78AFDF1E7FCF719
:1037440087FDF2E714010020B80500200C000020DA
:1037540004010020002070470020704700207047BB
:1037640012230B80004870473001002004230B8093
:103774000048704744010020002393421ED200B544
:1037840010E00CF1370C01F813C000014FEA430CB0
:103794000CF1010C4FF0000E01F80CE00133DBB228
:1037A400934209D24FEA107CB0F1204FE9D20CF1D8
:1037B400300C01F813C0E8E75DF804FB7047000023
:1037C40038B50B4BD3F8E807D3F8EC47D3F8F03708
:1037D400C01800D138BD074D0822A91CFFF7CCFF43
:1037E400042205F112012046FFF7C6FFF2E700BFED
:1037F40000F0FF1F4801002008B51A230B80FFF7D3
:10380400DFFF014808BD00BF4801002008B50A4693
:1038140028B905490548FFF714FF034808BD0249C4
:103824000248FFF70EFFF8E77C080020103D00086F
:1038340010B50A46034C21460348FFF702FF204611
:1038440010BD00BF7C080020303D000808B50A46C2
:1038540028B905490548FFF7F4FE034808BD0249A5
:103864000248FFF7EEFEF8E77C080020443D00081C
:1038740008B50A4628B905490548FFF7E2FE03489A
:1038840008BD02490248FFF7DCFEF8E77C08002087
:10389400583D0008022805D8DFE800F005040200BE
:1038A400012070470220704702680E4B9A4200D0F4
:1038B400704700B583B003F5DA33DA6942F40002E5
:1038C400DA61DB6903F400030193019B00221146D2
:1038D4001420FCF79FFD1420FCF7D4FD03B05DF821
:1038E40004FB00BF005C004008B500F52C71D0F863
:1038F400E802FFF767FA08BD08B501EB810300EBA6
:10390400C303D3F87C21D0F8E802FFF788FA08BD96
:1039140008B501EB810300EBC303DA6BD0F8E802CE
:10392400FFF7C3FA08BD08B5D0F8E802FFF764FB57
:1039340008BD10B504468368022B09D10121D4F8CF
:10394400E802FFF742FBD4F8E802FFF716FB10BDCC
:10395400FCF77EFCF2E7000010B50446D0F8E8025C
:10396400FFF736FBA36923B1024A136943F0060348
:10397400136110BD00ED00E008B5D0F8E802FFF7D0
:1039840030FB08BD10B504461948C0F8E842C4F835
:10399400C002184B036008234360022383600023A2
:1039A4008361C3610362FCF71DFEE8B9182300229A
:1039B4001146D4F8C002FDF719FD582300228021D6
:1039C400D4F8C002FDF712FD982300228121D4F817
:1039D400C002FDF70BFDD82300220121D4F8C00258
:1039E400FDF704FD002010BDFCF732FCDEE700BF4C
:1039F4007C0A0020005C004008B5D0F8C002FCF747
:103A04007DFEFFF747FF08BD08B594461A46634696
:103A1400D0F8C002FDF7B5FBFFF73CFF08BD08B5C1
:103A2400D0F8C002FDF7EFFBFFF734FF08BD08B57F
:103A3400D0F8C002FDF763FCFFF72CFF08BD08B502
:103A4400D0F8C002FDF797FCFFF724FF08BDD0F8BB
:103A5400C03211F0800F08D101F07F0101EB810128
:103A640003EBC10191F86A01704701F07F01013154
:103A740001EB810103EBC1018878704708B5D0F8E8
:103A8400C002FDF780FAFFF705FF08BD08B5D0F8BE
:103A9400C002FDF70CFCFFF7FDFE08BD08B5D0F829
:103AA400C002FDF7E2FBFFF7F5FE08BD00487047D2
:103AB400680D0020704770470C480D490D4A0023DB
:103AC40002E0D458C4500433C4188C42F9D30A4ACF
:103AD4000A4C002301E013600432A242FBD3FCF73A
:103AE4003BFC00F00FF8FCF7F7FB704700000020E8
:103AF40094050020803D000894050020C40D00209A
:103B0400FEE7000070B50D4E0D4D761BB61006D0C5
:103B1400002455F8043B01349847A642F9D1094ED4
:103B2400094D00F0D5F8761BB61006D0002455F8E0
:103B3400043B01349847A642F9D170BD743D000896
:103B4400743D00087C3D0008743D0008830730B5CF
:103B540048D0541E002A3FD00346CAB201E0013CBB
:103B64003AD303F8012B9D07F9D1032C2DD9CDB2FB
:103B740045EA05250F2C45EA054536D9A4F110027E
:103B840022F00F0C03F1200EE6444FEA121C03F15D
:103B9400100242E9045542E9025510327245F8D147
:103BA4000CF1010214F00C0F03EB021204F00F0CE1
:103BB40013D0ACF1040323F003030433134442F899
:103BC400045B9342FBD10CF003042CB1CAB21C4435
:103BD40003F8012B9C42FBD130BD64461346002CF4
:103BE400F4D1F9E703461446BFE71A46A446E0E7D2
:103BF400024B13B1024800F005B870470000000002
:103C0400153C0008002301461A46184600F01AB86D
:103C140038B5084B084D5B1B9C1007D0043B1D4472
:103C2400013C55F804399847002CF9D1BDE83840D7
:103C340000F054B8803D00087C3D0008704700BF88
:103C4400704700BF2DE9F047DFF87CA00646DAF89C
:103C5400000098460F469146FFF7F0FF1B4B1B6888
:103C6400D3F8484124B365681F2D26DC5EB96B1C6C
:103C74000235DAF80000636044F82570FFF7E0FFCE
:103C84000020BDE8F087012304EB8501C1F888908A
:103C9400D4F88821AB401A43022EC4F88821C1F815
:103CA4000881E4D1D4F88C211343C4F88C31DEE7C5
:103CB40003F5A674C3F84841D5E7DAF80000FFF726
:103CC400BFFF4FF0FF30DCE790050020703D000897
:103CD400F8B500BFF8BC08BC9E467047F8B500BFF5
:083CE400F8BC08BC9E467047C5
:103CEC0000000000000000000102030406070809A0
:103CFC0002030405060708090A0B0C0D0E0F101021
:103D0C000000000053544D333220437573746F6DB3
:103D1C002048756D616E20696E74657266616365AD
:103D2C000000000053544D6963726F656C656374D9
:103D3C00726F6E6963730000437573746F6D204806
:103D4C00494420436F6E66696700000043757374C5
:103D5C006F6D2048494420496E74657266616365D5
:083D6C000000000068010020C6
:083D7400F53B000809020008FC
:043D7C00E501000855
:103D80000024F4000100000010000000FD2C0008D9
:103D9000C52C00089D2B000800000000492B0008DE
:103DA0003D2B0008792B00080000000000000000F7
:103DB00000000000252B0008192B0008312B0008FB
:103DC0006D2B000809022900010100C0320904001E
:103DD0000002030000000921110100012222000756
:103DE000058103020005070501030200050000002C
:103DF00009022900010100C0320904000002030089
:103E0000000009211101000122220007058103029F
:103E1000000507050103020005000000092111014A
:103E200000012222000000000A06000200000040FB
:103E30000100000009022900010100C0320904004C
:103E400000020300000009211101000122220007E5
:103E500005810302000507050103020005000000BB
:103E600000C0000000000000000000000000000092
:103E70000000000000000000000000000000000042
:103E800000000000E0000020593700085D370008FE
:103E900061370008653700087137000835380008B9
:103EA00011380008FD37000851380008753800083F
:103EB000120100020000004083045057000201027A
:103EC00003010000040309041A03000000000000BD
:103ED00000000000000000000000000000000000E2
:103EE000000000000000000000000000540400205A
:103EF000BC04002024050020000000000000000099
:103F000000000000000000000000000000000000B1
:103F100000000000000000000000000000000000A1
:103F20000000000000000000000000000000000091
:103F30000000000000000000000000000000000081
:103F40000000000000000000000000000000000071
:103F50000000000000000000000000000000000061
:103F60000000000000000000000000000000000051
:103F70000000000000000000000000000000000041
:103F80000000000000000000000000000000000031
:103F900001000000000000000E33CDAB34126DE6CE
:103FA000ECDE05000B000000000000000000000037
:103FB0000000000000000000000000000000000001
:103FC00000000000000000000000000000000000F1
:103FD00000000000000000000000000000000000E1
:103FE00000000000000000000000000000000000D1
:04431000C00D0020BC
:0400000508003ABDF8
:00000001FF
